:080000000C9449000C9400006F
:100008000C9400000C9400000C9400000C94000068
:100018000C9400000C9400000C9400000C94000058
:100028000C9400000C9400000C9400000C94000048
:100038000C9400000C9400000C9400000C94000038
:100048000C9400000C9400000C9400001027E803A6
:1000580064000A0001000010000110000100446162
:1000680074613A20002564000A4D616C616D204876
:10007800617269000A5369616E672048617269009C
:1000880080C00200630188000000F894EE27ECBBF2
:10009800F1E0FBBFEBBFE5BF8DE0A2E0BB27ED932E
:1000A8008A95E9F780E094E0A0E6ED930197E9F7F7
:1000B800EAE8F0E085919591009761F0A591B591F6
:1000C80005901590BF01F00105900D920197E1F799
:1000D800FB01F0CFEFE5EDBFE4E0EEBFC0E6D1E015
:1000E8000C948400AA93E881E062E7B988E28A95D3
:1000F800F1F7369A349BFECF349AE5B10C9422037B
:10010800E0E0EABBEBBBE7BBE8BBE4BBE5BBE1BBBC
:10011800E2BBE3BFE2BFECBFEFBDEEBDEDBDECBDA2
:10012800E7BDE6BDEBBDEABDE9BDE8BDE2BDE5BDA5
:10013800E4BDE3BDE9BFE5BFE4BFEAB9E0E8E8B97B
:10014800E0E2E7B9E4E8E6B9E0E0E0BFEDB9E6BF30
:10015800A0E10E94F6020E94B302A6E6B0E00E9467
:10016800E302A1E0BFDF5E2EE0E6F1E0FA93EA9356
:10017800EDE6F0E0FA93EA93E52DFF276627772767
:100188000E94910384E00E9452022896A0E6B1E002
:100198000E94D402E4E6E51518F4A0E7B0E002C036
:1001A800ACE7B0E00E94E302A8EEB3E00E94770358
:1001B800D2CFFFCFBA93AA931A930A93AA81BB818D
:1001C80012960E948903309759F1AA81BB8114962F
:1001D8000E9489038F01309761F00230E0E01E072A
:1001E80098F0F80131978F01AA81BB811496ED939D
:1001F800FC93AA81BB811296ED91FD913196FE93F5
:10020800EE933197AC81A083AA81BB810E948903B8
:10021800FF232AF0ED91FD913196FE93EE9306C0EF
:10022800AA81BB81EFEFFFEFED93FC931981088161
:1002380025960895BA93AA9326970E94960310E0EC
:10024800AC85BD85E0E0F0E0ED93FC93EA89FB899D
:100258003196EA8BFB8B3197E4912E2FE03009F42D
:1002680015C1E12FE03039F4253211F411E002C054
:100278000E943D030AC1E130A9F4253219F40E9415
:100288003D0302C112E040E000E02D3211F401E02C
:10029800FCC02B3211F44BE2F8C0203211F440E2DA
:1002A800F4C002C0E23039F450E013E0203311F416
:1002B8000068EBC003C0E33009F0E7C0203310F05A
:1002C8002A3308F007C0AAE05A9F502DE22FE053C6
:1002D8005E0FDBC0E22FE33649F40E944403E8894D
:1002E800F989A481AA930E944A03CEC0E33741F456
:1002F8000E9444030E9450030E9424031E2F0AC038
:10030800E03761F40E9444030E9450030E943003C6
:100318001E2F086002600F7730E034C0E43611F019
:10032800E93611F4046002C0E53731F4E4E5F0E0A1
:10033800EE83FF8315E00CC0E83511F4086003C0B4
:10034800E83709F0A1C0EEE5F0E0EE83FF8314E0A2
:1003580002FF14C00E9444030E945A03AB85AA23DB
:100368003AF4EA85FB850E948503EA87FB874DE21C
:10037800403011F01F5F01C00B7F04C00E9444038E
:100388000E945A0300FD11C0151778F407FF08C032
:1003980002FF04C00B7F242F115001C020E301C0CD
:1003A80020E20E943D035150EFCF312F01FF17C0CB
:1003B8003030A1F003FF06C0EE81FF812591EE8366
:1003C800FF8305C0AE81BF812D91AE83BF830E949C
:1003D8003D03503009F051503150EACF4BC020E373
:1003E800EE81FF810E948D03E887F987EE81FF8106
:1003F8003296EE83FF83E885F985AA85BB85AE171B
:10040800BF0750F02F5FA885B985EA85FB85EA1BF1
:10041800FB0BEA87FB87EFCF2A3328F003FF02C0E4
:10042800295F01C0295D04FD1AC0213320F4A88585
:10043800B985119709F409C0531710F000FF01C0DE
:1004480013C020E207FF0BC020E3006102FF07C0D2
:100458000B7F4A930E944A03503009F051500E9482
:100468003D03503009F051503150A885B985129795
:1004780008F0B5CF00FF08C0503031F05150E0E22D
:10048800EA930E944A03F8CF10E0E0CEAC85BD8520
:100498000E9489030E949D0364960895FF92F82E96
:1004A80026970E9498030E946203309719F4EFEF91
:1004B800FFEF23C0DE0116960E9481038D010E9482
:1004C8006203EE83FF83E0E0E887E987DE011A969E
:1004D8000E9481030E948903FA93EA931A930A936C
:1004E800EEEDF0E0FA93EA93DE011A96A3DE9F019F
:1004F800AE81BF81E0E0EC93F9010E949F032A9648
:10050800FF900895AA93E8B3EF70AE2FE881E07FDB
:10051800EA2BE8BB84E18A95F1F7C29A84E18A95CF
:10052800F1F7C29884E18A95F1F788C0AA93A88167
:10053800E9DFE881E295E883A881E4DF88EC8A9521
:10054800F1F77CC0AA93E881F0E0ED59FE4FE08115
:10055800A981AE0FEBDF4980788022960895A2E04A
:100568000E946903ACE0E2DFA1E00E946903E0E0D9
:100578007E2E4E2E0895AA93A881AA3011F0461413
:1005880048F0E0E0EA937394A72DDCDFA881AA3055
:1005980009F454C04394C09AA881C8DFC0984EC0DB
:1005A800BA93AA931A93A981BA81ED91A983BA83C0
:1005B8001E2FE03019F0A12FDEDFF5CF10C0BA935F
:1005C800AA931A93E981FA813196E983FA833197DC
:1005D800E4911E2FE03019F0A12FCDDFF3CF188161
:1005E80023960895AA93E7B3E06FE7BBBA9AB89A3F
:1005F800B99AC298C098C1986880E881E058E09399
:100608006501E881E054E0936601A4E1B0E00E944E
:1006180077030E946F030E946F030E946F03A0E29A
:1006280071DF8CE291E00197F1F7A8E27FDFA4E0A7
:100638007DDFA5E87BDFA6E079DF91DF21960895CD
:10064800BA93AA93A991B991EE27FF276D916623D2
:1006580011F03196FBCF0895BA93AA93AA27BB2726
:10066800E991F9910590002011F01196FBCFFD0159
:1006780008952A93AD85BE85EF85F8890995089573
:10068800E889F9893497E88BF98B0895AD85BE859B
:10069800EF85F88909950895A889B98914960E9463
:1006A8008903EE83FF83AE81BF810895A889B98944
:1006B80014960E948903EA87FB870895DE011C9639
:1006C8000E9481030E94890308950E949A02A3E070
:1006D800B0E00C947703A0E30E9486028CE291E0DC
:1006E8000197F1F70895109639F088EB9BE0019790
:1006F800F1F7A8951197C9F708950024AF0DB01D1B
:100708000895F195E195F0400895ED91FC911197C8
:1007180008950590F491E02D08957A936A93FA93D9
:10072800EA9308955A934A933A932A931A930A9309
:1007380008955D814C813B812A8119810881089542
:00000001FF
