:060000000C9453000C9467
:1000060000000C9400000C9400000C9400000C946A
:1000160000000C9400000C9400000C9400000C945A
:1000260000000C9400000C9400000C9400000C944A
:1000360000000C9400000C9400000C9400000C943A
:1000460000000C9400000C9400000C940000256441
:100056000044726A643A2000252E31662043000A65
:100066004E6F726D616C000A42616861796120733E
:100076006564616E67000A4B7269746973002D4E80
:10008600414E000080C001002D4E414E00494E46B3
:100096000000020069018A0001006D018C00000069
:1000A600F894EE27ECBBF1E0FBBFEBBFE5BF8DE0BC
:1000B600A2E0BB27ED938A95E9F780E094E0A0E6FD
:1000C600ED930197E9F7E8E9F0E0859195910097BE
:1000D60061F0A591B59105901590BF01F0010590CD
:1000E6000D920197E1F7FB01F0CFEFE5EDBFE4E0FC
:1000F600EEBFC0E6D1E00C948E00AA93E881E062E0
:10010600E7B988E28A95F1F7369A349BFECF349A9E
:10011600E5B10C943405E0E0EABBEBBBE7BBE8BB1A
:10012600E4BBE5BBE1BBE2BBE3BFE2BFECBFEFBDB7
:10013600EEBDEDBDECBDE7BDE6BDEBBDEABDE9BD7F
:10014600E8BDE2BDE5BDE4BDE3BDE9BFE5BFE4BF93
:10015600EAB9E0E8E8B9E0E2E7B9E4E8E6B9E0E000
:10016600E0BFEDB9E6BFA0E10E9408050E94C50404
:10017600A0E0C3DF5E2EE0E6F1E0FA93EA93E4E561
:10018600F0E0FA93EA93E52DFF27662777270E948A
:100196003F06A7E5B0E00E94F504E52DF0E00E94D9
:1001A6004606A0E0B0E080EA90E40E946B08A0E07A
:1001B600B0E088EC92E40E946B08DF01CB01EDEC25
:1001C600FCEC6CE470E40E94B908DF01CB01E0E0CE
:1001D600F0E06FE773E40E94B908E0936501F093DD
:1001E60066016093670170936801E0E6F1E0FA93B7
:1001F600EA93EEE5F0E0FA93EA93E0916501F09177
:10020600660160916701709168010E943F06A0E651
:10021600B1E00E94E604A4E6B0E00E946B07A0915C
:100226006801AA2332F00E944B0611F008F001C0C3
:1002360001C003C0A5E6B0E016C00E944B0609F057
:1002460008F406C00E945A0611F008F001C001C069
:1002560003C0ADE6B0E007C00E945A0609F008F4F4
:1002660004C0ACE7B0E00E94F504A8EEB3E00E943B
:100276006B077CCFFFCFBA93AA931A930A93AA81EE
:10028600BB8112960E948909309729F1AA81BB8108
:1002960014960E9489098F01309761F00230E0E0E0
:1002A6001E0780F0F80131978F01AA81BB81149651
:1002B600ED93FC93AA81BB8112960E946906319741
:1002C600AC81A083AA81BB810E948909FF2312F019
:1002D6000E94690606C0AA81BB81EFEFFFEFED938E
:1002E600FC9319810881259608950E946F06E0E81F
:1002F600EA83EFE3EB830E94BF09EE85FF85EF3FBC
:10030600AFEFFA0749F4E885F985FA93EA93A4E88A
:10031600B0E00E943605B7C0EF3FAFE7FA0749F4F1
:10032600E885F985FA93EA93A5E8B0E00E943605D8
:10033600AAC0AB85A73010F0E6E0EB871B85E12F5E
:100346001150E03019F00E947606F9CFEC85FD8554
:100356006E857F850E94B90921F430E00E947606F9
:100366002DC03B850E94850609F008F40BC00E944B
:1003760076060E94850628F00E9490060E94950641
:10038600F8CF0DC00E94850640F40E9490060E9498
:10039600A1060E94A8063150F5CF0E947606EC858C
:1003A600FD856E857F850E94AD060E94A8060E9487
:1003B600850620F00E9490060E94950610E0EB85C7
:1003C600E117A8F1AC81BD818E819F810E94B406A0
:1003D6000E94AD06DF01CB010E948D05EC83FD83F3
:1003E6006E837F830E9490060E94B9080E94A80728
:1003F6000E2F0E94BB060E94C206FF27662777279C
:100406000E94E107AC81BD818E819F810E946B08AD
:100416000E9490060E94C7060E94A806E12F1F5F51
:10042600E03069F60E94BB06EEE2EC93C8CF0E946C
:10043600CC063197AA85A08330302CF43195A88557
:10044600B985EDE203C0A885B985EBE2EC930E947D
:10045600CC060E94CC063197BF01A32FEAE00E948A
:100466004309E05DDB01EC930E94CC063197BF01A6
:10047600A32FEAE00E946D09E05DDB01EC93A885FD
:10048600B985E0E0EC930E94C60960960895BA9398
:10049600AA93EF9761970E94BD0910E0FE01E85A02
:1004A600FF4F0190F081E02DE887F987FE01EA5AB7
:1004B600FF4F0190F081E02DEE83FF83AE81BF8177
:1004C600E0E0F0E0ED93FC93DE01A45ABF4F0E94FA
:1004D60069063197E4912E2FE03009F4E9C1E12F46
:1004E600E03039F4253211F411E002C00E94D20640
:1004F600DEC1E130C1F4253219F40E94D206D6C11C
:1005060012E0E0E0ED8B00E02D3211F401E0CFC106
:100516002B3219F4EBE2ED8BCAC1203219F4E0E27A
:10052600ED8BC5C102C0E23039F450E013E0203350
:1005360011F40068BCC102C0E33091F4203310F01E
:100546002A3308F007C0AAE05A9F502DE22FE05345
:100556005E0FADC140E02E3211F414E0A8C10FC009
:10056600E43099F4203310F02A3308F008C0006212
:10057600AAE04A9F402DE22FE0534E0F98C12C3639
:1005860019F4026015E093C103C0E53009F08FC18C
:10059600E22FE33659F40E94D9060E94E0060E9433
:1005A600D906A481AA930E94E70680C1E53411F01A
:1005B600E53609F403C0E63609F048C0FE01769632
:1005C600EE87FF870E94ED060E948D090E94F406C1
:1005D6000E94F906AD85AA2332F0AD89AB3259F0F7
:1005E600A03281F017C00E94FB060E9475070E9488
:1005F600F406EDE2ED8B07FF05C0ED89EA930E9454
:10060600E70608C0EE85FF853196EE87FF873197AE
:10061600AD89A08305FF46E0263651F40E94FB060D
:100626000E94A2094A93AB89BC890E94A40509C00D
:100636000E94FB060E94A2094A932A93AC89BD89AF
:1006460054DEFE0176960E9400071EC0E33739F499
:100656000E94F9060E9408070E9400070EC0E037B4
:10066600C1F40E94F9060E940807EE87FF87AE854F
:10067600BF850E944F051E2F08600F77403011F08E
:10068600411708F001C0142F40E0E0E0EC8B30E0A9
:100696006DC0E43611F0E93611F4046002C0E537A6
:1006A600A1F4EAE0EC8B01FF08C0E0E0FAEC6AE9AD
:1006B6007BE30E940D071AE022C0E0E1F7E260E06A
:1006C60070E00E940D0715E01AC0E83511F40860C5
:1006D60003C0E83709F0EAC0E0E1EC8B01FF08C08F
:1006E600E0E0F0E060E070E10E940D0718E007C06E
:1006F600E0E0F0E160E070E00E940D0714E04030B9
:1007060011F00F7701C041E001FF08C00E94F90611
:100716000E94ED0614960E948D090FC002FF07C0C5
:100726000E94F9060E9408070E94300906C00E942E
:10073600F9060E94080766277727EA87FB876C87F2
:100746007D8702FF12C0AD85AA2342F40E94FB06F4
:100756000E9422090E94F406EDE2ED8BED89E0305D
:1007660019F01F5F4F5F01C00B7F342F00FD14C0CF
:10077600151710F4351708F00FC007FF08C002FF61
:1007860004C00B7F2D89115001C020E301C020E277
:100796000E94D2065150ECCF141790F4006102FF6C
:1007A60006C00E94120709F0515011504150E0E373
:1007B600EA930E94E706503009F051504150ECCFC1
:1007C600312FEC89E030B9F43030A1F003FF06C0D8
:1007D600EE85FF852591EE87FF8705C0AE85BF852F
:1007E6002D91AE87BF870E94D206503009F0515036
:1007F6003150EACF51C00E9424070E9448092E2F8B
:100806002A3030F003FF02C0295C01C0295A01C01A
:10081600205D04FD21C0213360F4A889B9898A8945
:100826009B89A130E0E0BE07E0E08E07E0E09E078E
:1008360009F40BC0431740F4531710F000FF01C032
:1008460010C020E207FF08C020E3006102FF04C0D9
:100856000E94120709F051500E94D206503009F04A
:10086600515031500E9424070E9479090E94F406D3
:10087600EC89A889B9898A899B89FF276627772702
:100886000E9448090E940D07E889F9896A897B89CF
:100896000E94B90909F0AFCF00FF08C0503031F00F
:1008A6005150E0E2EA930E94E706F8CF10E00CCE42
:1008B600AE81BF810E9489090E94C409EF966F9696
:1008C6000895FF92F82E26970E94BF090E942D07D1
:1008D600309719F4EFEFFFEF23C0DE0116960E9462
:1008E6001E098D010E942D07EE83FF83E0E0E88755
:1008F600E987DE011A960E941E090E948909FA9369
:10090600EA931A930A93EEE3F1E0FA93EA93DE018F
:100916001A96BDDD9F01AE81BF81E0E0EC93F9013F
:100926000E94C6092A96FF900895AA93E8B3EF702D
:10093600AE2FE881E07FEA2BE8BB84E18A95F1F7E8
:10094600C29A84E18A95F1F7C29884E18A95F1F713
:1009560088C0AA93A881E9DFE881E295E883A881A7
:10096600E4DF88EC8A95F1F77CC0AA93E881F0E091
:10097600E759FE4FE081A981AE0FEBDF4980788011
:1009860022960895A2E00E943407ACE0E2DFA1E0DF
:100996000E943407E0E07E2E4E2E0895AA93A88189
:1009A600AA3011F0461448F0E0E0EA937394A72DBC
:1009B600DCDFA881AA3009F454C04394C09AA88108
:1009C600C8DFC0984EC0BA93AA931A93A981BA8178
:1009D600ED91A983BA831E2FE03019F0A12FDEDF37
:1009E600F5CF10C0BA93AA931A93E981FA8131968A
:1009F600E983FA833197E4911E2FE03019F0A12F95
:100A0600CDDFF3CF188123960895AA93E7B3E06F5D
:100A1600E7BBBA9AB89AB99AC298C098C198688042
:100A2600E881E058E0936B01E881E054E0936C01C3
:100A3600A4E1B0E00E946B070E943A070E943A07C1
:100A46000E943A07A0E271DF8CE291E00197F1F78C
:100A5600A8E27FDFA4E07DDFA5E87BDFA6E079DF03
:100A660091DF21960895BA93AA93E991F991A991F4
:100A7600B991CD0105900D920020E1F7FC01089592
:100A8600BA93AA93A991B991EE27FF276D91662390
:100A960011F03196FBCF0895BA93AA93AA27BB27E4
:100AA600E991F9910590002011F01196FBCFFD0117
:100AB60008950E94A7097B816A81F981E88177FB05
:100AC600770F67FD7160972F9E5781F078F0983108
:100AD60090F4AA27BB27882708948795B795A795EA
:100AE6009A95D1F7EA23FB23682305C0E894772774
:100AF600EE27FF2766276F77769508F4606877F903
:100B0600A991B99189919991EA17FB076807790725
:100B160097FB08950E94A7090E9498090E945C0508
:100B26000E949D0919F40E94930909C0E6F70E94E4
:100B36009309A0E0B0E080E89FE30E9414082496A1
:100B46000895CAD0E0E0EA83EFE3EB831A930A93B1
:100B5600EB85FC85EF3FAFEFFA0731F490D1AEE8B5
:100B6600B0E00E94360584C0EF3FAFE7FA0731F4E4
:100B760086D1AFE8B0E00E9436057AC0AC85AA23DC
:100B860052F4E985FA856B857C850E9475077CD1D0
:100B960080D1EDE2EC93A885A73010F0E6E0E88777
:100BA6001885E12F1150E03021F07AD1DAD07DD1CD
:100BB600F8CF80D10E941B0867D110E0E0E0F0E09A
:100BC60060E87FE372D176D10E94FE0868F068D1B2
:100BD600B5D06BD11F5F173230F051D1A3E9B0E029
:100BE6000E94360545C0EFCF103021F452D1E0E324
:100BF600EC931DC0E12F1150E030C9F051D1B1D0B6
:100C0600A9D0DF01CB010E948D054FD153D10E949F
:100C1600B9080E94A8070E2F3CD1B1D0F0E040D110
:100C260032D00E946B084FD1AFD02ED1E3CFE885EA
:100C3600E030D1F02ED1EEE2EC93E885E150E88782
:100C4600EF5F91F040D17AD01FD1E985FA856B85A7
:100C56007C850E94A8070E2F1CD191D0F0E033D1DD
:100C660012D092D011D1E9CFAE81BF81E0E0EC93F2
:100C7600198108812D9608950E94A20984E00E9498
:100C86006404289608950E9430090E94E107089599
:100C9600A0916501B091660180916701909168010C
:100CA600E0E0F0E060E272E40E94FE080895A091A0
:100CB6006501B09166018091670190916801E0E05D
:100CC600F0E068E472E40E94FE080895ED91FD915B
:100CD6003196FE93EE930895BA93AA932497E0E093
:100CE600E883E9830895AC81BD818E819F81E0E030
:100CF600F0E060E271E40E946B08EC83FD836E8392
:100D06007F830895EC81FD816E817F81AC85BD85F1
:100D16008E859F850E94FE080895AC85BD858E85CB
:100D26009F850895EDECFCEC6CEC7DE30E946B086E
:100D3600EC87FD876E877F873F5F0895E0E0F0E0F0
:100D460060E271E40E946B080895EC87FD876E8768
:100D56007F870895A0E0B0E080E09FE30E941B0833
:100D66000895EDECFCEC6CEC7DE30E946B080895B5
:100D7600A885B9851196A887B98711970895E02F98
:100D8600E05DEC93E02F08950E94AC090E941408E0
:100D96000895E885F9853196E887F98708952A93B5
:100DA600AF81B885E985FA8509950895FE01E65A69
:100DB600FF4F0190F081E02D08953497DE01A65A89
:100DC600BF4FED93FC930895AF81B885E985FA8509
:100DD60009950895DE01A65ABF4F0D90BC91A02D2E
:100DE6000895EA87FB876C877D870895DFDFE5CF67
:100DF600EA85FB856C857D850895EE87FF87AE8540
:100E0600BF850E9443051E2F0895E4DF14960E94B5
:100E160089090895E88BF98B6A8B7B8B08950B7F84
:100E2600ED89EA93DE01A95ABF4F0D90BC91A02D22
:100E3600FE01E75AFF4F0190F081E02D09955030F1
:100E46000895E889F9896A897B89AA85BB858C8595
:100E56009D850895DE011C960E941E090E9489093F
:100E660008950E94AC04A3E0B0E00C946B07A0E3E5
:100E76000E9498048CE291E00197F1F70895EE81C3
:100E8600FF81FA93EA930895E987FA876B877C874F
:100E96000895AE81BF811196AE83BF8311970895E1
:100EA600AA81BB818C819D810895EA83FB836C8333
:100EB6007D830895EA81FB816C817D81A985BA8550
:100EC6008B859C850895A985BA858B859C85089513
:100ED600109639F088EB9BE00197F1F7A8951197EA
:100EE600C9F7089530976040704009F0705808952A
:100EF600552342F4503811F4E0FF04C03196691FBF
:100F0600791F6BF050E8572711F45F93CFC05F3F0E
:100F160031F0660F000C57956795752F08955F930E
:100F260000200AF0CFC0C8C050E8192E1522880F3D
:100F3600991F9527550F879550E8072E0522660FAE
:100F4600771F7527550F67950895689401C0E89433
:100F56005F93F2DF703818F07F3F08F4A7C056E1C0
:100F6600571BAAF4519558300EF4593030F0EFEF74
:100F7600FFEF6FEF7FE777F91AC077275523B9F0B0
:100F8600EE0FFF1F661F771F5A95D1F710C0772700
:100F9600583028F0EF2FF62F672F5850F9CF5523EA
:100FA60031F076956795F795E7955A95D1F7002034
:100FB6000AF445D15F910895689401C0E89430978A
:100FC60060407040B1F0002426F0772312F40094BC
:100FD60036D1172E7EE1112032F07A95EE0FFF1FE3
:100FE600661F111CF9CFEF2FF62F612D5F938ADF55
:100FF6005F9108954F93AF01FD01DA01AB01BC018A
:10100600CA01402D012C142E4F910895EA0FFB1FA3
:10101600681F0895E095F0956095EF5FFF4F6F4F5D
:1010260008955F9381DF903871F150E8152604C06A
:101036005F937ADF903839F1703821F1572F591BB9
:101046002BF112F4D7DFFACF583118F0AA27BB27B5
:101056008827583028F0AB2FB82F88275850F9CF5B
:10106600552329F08695B795A7955A95D9F7502D0A
:10107600512572F0CBDF38F46795F795E7957395B0
:1010860013F420C0B7DF3EDF5F910895D8F7FBCF9A
:10109600EA1BFB0B680B51F010F40094BBDF6623D0
:1010A60092F3EE0FFF1F661F7A95CBF7EE27FF2709
:1010B600662777275F910895EFEFFFEF6FE77FEFE2
:1010C6005F910895EFEFFFEF6FE77FE75F91089578
:1010D6005F932ADF703851F3903841F30124089466
:1010E600791F23F41CF300203AF3ECCF0F921F93E1
:1010F6002F933F934F93112722279927689FA0018B
:101106008F9F302D410D591F6B9F300D411D591F6B
:101116008E9F27D0BF9F25D06A9F23D0BE9F1DD00C
:10112600AF9F1BD0AE9F110D291F391F491F591F95
:10113600E32FF42F652F522F4F913F912F911F913F
:101146000F9066232AF0550FEE1FFF1F661F02C081
:1011560073954BF2CDDE5F910895100D211D391F59
:1011660002C0200D311D491F591F08955F93DCDE13
:10117600703821F411200AF49FCFA4CF903809F4D7
:1011860095CF01240894970B1BF4D4F30020F3CFDA
:10119600792F1F932F933F934F93112411272227C3
:1011A60033274427552790E2AE17BF078607410726
:1011B60030F0AE1BBF0B860B410B089401C0889420
:1011C600551F221F331F111CAA1FBB1F881F441F38
:1011D6009A9551F7F901612D4F913F912F911F91EA
:1011E600662332F0550FEE1FFF1F661F7A9543F2F6
:1011F6007FDE5F91089599239AF0772342F097173F
:1012060048F029F4AE17BF07860720F031F098940E
:101216008894089598940894089518948894089545
:101226007723C2F7971798F3A9F7EA17FB0768071A
:1012360088F399F3ECCF0024AF0DB01D0895F09517
:1012460060957095E195FF4F6F4F7F4F0895FE2F84
:10125600FF0FFF0B6F2F7F2F08956F2F660F660B03
:10126600762F0895002498E0AA0F001C0E1A10F499
:101276000E0E01C0A1609A95B9F7EA2FA02D089528
:1012860039D0F0DF0EF4E19508953F934F935F93C5
:10129600002411244427552730E2AA0FBB1F881FBC
:1012A600991F001C111C441F551F0E1A1F0A460BBE
:1012B600570B28F40E0E1F1E461F571F01C0A160B4
:1012C6003A9559F7FD01BC01D001CA015F914F91D2
:1012D6003F910895E894A7FF02C0A1956894E7FDA1
:1012E600E195C0DFEA2F0EF4E1950895CEDFFD010A
:1012F600BC010895E894E7FF02C0E1956894A7FF52
:1013060004C0A19500F8039400FA0895ED91FC91AC
:1013160011970895ED91FD916D917C911397089524
:10132600E881F9816A817B810895A881B9818A81E2
:101336009B810895E883F9836A837B8308957A9372
:101346006A93FA93EA9308959A938A93BA93AA931F
:101356000895182E862F612D192E972F712D1B2E6D
:10136600BF2FF12D1A2EAE2FE12D08953097604034
:10137600704008955A934A933A932A931A930A937C
:1013860008955D814C813B812A81198108810895E8
:00000001FF
