:020000000C945E
:1000020040000C9400000C9400000C9400000C942E
:1000120000000C9400000C9400000C9400000C945E
:1000220000000C9400000C9400000C9400000C944E
:1000320000000C9400000C9400000C9400000C943E
:1000420000000C9400000C9400000C9400000C942E
:1000520000001027E80364000A00010000100001FC
:1000620010000100446174612053756172613A208D
:100072000025640080C00200630176000000F8944D
:10008200EE27ECBBF1E0FBBFEBBFE5BF8DE0A2E0EA
:10009200BB27ED938A95E9F780E094E0A0E6ED9323
:1000A2000197E9F7E8E7F0E085919591009761F013
:1000B200A591B59105901590BF01F00105900D92A3
:1000C2000197E1F7FB01F0CFEFE5EDBFE4E0EEBF12
:1000D200C0E6D1E00C947B00AA93E881E062E7B924
:1000E20088E28A95F1F7369A349BFECF349AE5B1CD
:1000F2000C940F03E0E0EABBEBBBE7BBE8BBE4BB5D
:10010200E5BBE1BBE2BBE3BFE2BFECBFEFBDEEBDCF
:10011200EDBDECBDE7BDE6BDEBBDEABDE9BDE8BDA9
:10012200E2BDE5BDE4BDE3BDE9BFE5BFE4BFEAB9B9
:10013200E0E8E8B9E0E2E7B9E4E8E6B9E0E0E0BF28
:10014200EDB9E6BFA0E10E94E3020E94A002A6E68A
:10015200B0E00E94D002A2E0BFDF5E2EE0E6F1E056
:10016200FA93EA93E3E7F0E0FA93EA93E52DFF27A7
:10017200662777270E947E0384E00E943F0228962A
:10018200A0E6B1E00E94C102A4EFB1E00E946403C4
:10019200DCCFFFCFBA93AA931A930A93AA81BB81A9
:1001A20012960E947603309759F1AA81BB81149668
:1001B2000E9476038F01309761F00230E0E01E0763
:1001C20098F0F80131978F01AA81BB811496ED93C3
:1001D200FC93AA81BB811296ED91FD913196FE931B
:1001E200EE933197AC81A083AA81BB810E947603F2
:1001F200FF232AF0ED91FD913196FE93EE9306C016
:10020200AA81BB81EFEFFFEFED93FC931981088187
:1002120025960895BA93AA9326970E94830310E025
:10022200AC85BD85E0E0F0E0ED93FC93EA89FB89C3
:100232003196EA8BFB8B3197E4912E2FE03009F453
:1002420015C1E12FE03039F4253211F411E002C07A
:100252000E942A030AC1E130A9F4253219F40E944E
:100262002A0302C112E040E000E02D3211F401E065
:10027200FCC02B3211F44BE2F8C0203211F440E200
:10028200F4C002C0E23039F450E013E0203311F43C
:100292000068EBC003C0E33009F0E7C0203310F080
:1002A2002A3308F007C0AAE05A9F502DE22FE053EC
:1002B2005E0FDBC0E22FE33649F40E943103E88986
:1002C200F989A481AA930E943703CEC0E33741F48F
:1002D2000E9431030E943D030E9411031E2F0AC097
:1002E200E03761F40E9431030E943D030E941D0326
:1002F2001E2F086002600F7730E034C0E43611F040
:10030200E93611F4046002C0E53731F4E4E5F0E0C7
:10031200EE83FF8315E00CC0E83511F4086003C0DA
:10032200E83709F0A1C0EEE5F0E0EE83FF8314E0C8
:1003320002FF14C00E9431030E944703AB85AA2327
:100342003AF4EA85FB850E947203EA87FB874DE255
:10035200403011F01F5F01C00B7F04C00E943103C7
:100362000E94470300FD11C0151778F407FF08C06B
:1003720002FF04C00B7F242F115001C020E301C0F3
:1003820020E20E942A035150EFCF312F01FF17C004
:100392003030A1F003FF06C0EE81FF812591EE838C
:1003A200FF8305C0AE81BF812D91AE83BF830E94C2
:1003B2002A03503009F051503150EACF4BC020E3AC
:1003C200EE81FF810E947A03E887F987EE81FF813F
:1003D2003296EE83FF83E885F985AA85BB85AE1741
:1003E200BF0750F02F5FA885B985EA85FB85EA1B18
:1003F200FB0BEA87FB87EFCF2A3328F003FF02C00B
:10040200295F01C0295D04FD1AC0213320F4A885AB
:10041200B985119709F409C0531710F000FF01C004
:1004220013C020E207FF0BC020E3006102FF07C0F8
:100432000B7F4A930E943703503009F051500E94BB
:100442002A03503009F051503150A885B9851297CE
:1004520008F0B5CF00FF08C0503031F05150E0E253
:10046200EA930E943703F8CF10E0E0CEAC85BD8559
:100472000E9476030E948A0364960895FF92F82EE2
:1004820026970E9485030E944F03309719F4EFEFDD
:10049200FFEF23C0DE0116960E946E038D010E94BB
:1004A2004F03EE83FF83E0E0E887E987DE011A96D7
:1004B2000E946E030E947603FA93EA931A930A93B8
:1004C200EBECF0E0FA93EA93DE011A96A3DE9F01C9
:1004D200AE81BF81E0E0EC93F9010E948C032A9681
:1004E200FF900895AA93E8B3EF70AE2FE881E07F02
:1004F200EA2BE8BB84E18A95F1F7C29A84E18A95F6
:10050200F1F7C29884E18A95F1F788C0AA93A8818D
:10051200E9DFE881E295E883A881E4DF88EC8A9547
:10052200F1F77CC0AA93E881F0E0ED59FE4FE0813B
:10053200A981AE0FEBDF4980788022960895A2E070
:100542000E945603ACE0E2DFA1E00E945603E0E025
:100552007E2E4E2E0895AA93A881AA3011F0461439
:1005620048F0E0E0EA937394A72DDCDFA881AA307B
:1005720009F454C04394C09AA881C8DFC0984EC001
:10058200BA93AA931A93A981BA81ED91A983BA83E6
:100592001E2FE03019F0A12FDEDFF5CF10C0BA9385
:1005A200AA931A93E981FA813196E983FA83319702
:1005B200E4911E2FE03019F0A12FCDDFF3CF188187
:1005C20023960895AA93E7B3E06FE7BBBA9AB89A65
:1005D200B99AC298C098C1986880E881E058E093BF
:1005E2006501E881E054E0936601A4E1B0E00E9475
:1005F20064030E945C030E945C030E945C03A0E20D
:1006020071DF8CE291E00197F1F7A8E27FDFA4E0CD
:100612007DDFA5E87BDFA6E079DF91DF21960895F3
:10062200BA93AA93A991B991EE27FF276D916623F8
:1006320011F03196FBCF0895BA93AA93AA27BB274C
:10064200E991F9910590002011F01196FBCFFD017F
:1006520008952A93AD85BE85EF85F8890995089599
:10066200E889F9893497E88BF98B0895AD85BE85C1
:10067200EF85F88909950895A889B98914960E9489
:100682007603EE83FF83AE81BF810895A889B9897D
:1006920014960E947603EA87FB870895DE011C9672
:1006A2000E946E030E94760308950E948702A3E0CF
:1006B200B0E00C946403A0E30E9473028CE291E028
:1006C2000197F1F70895109639F088EB9BE00197B6
:1006D200F1F7A8951197C9F708950024AF0DB01D41
:1006E2000895F195E195F0400895ED91FC911197EF
:1006F20008950590F491E02D08957A936A93FA9300
:10070200EA9308955A934A933A932A931A930A932F
:1007120008955D814C813B812A8119810881089568
:00000001FF
